:020000040000FA
:04000000A7EF15F061
:1006000000554C445253584142597350726F6675AD
:100610006E646F720A0050726F66756E646F723A24
:100620000041696C65726F6E3A200050726F66759A
:100630006E646F720041696C65726F6E0A00416989
:100640006C65726F6E3A0041696C65726F6E002066
:100650004772617573004C656D650A004D494E3AED
:1006600020004D41583A20004C656D653A004C65BC
:100670006D6500004450800B4D6E445044244F6E15
:1006800043AE45EF03F047EF03F048EF03F04F8030
:100690004F50D8B44EEF03F050EF03F065EF03F086
:1006A0004F28D8A456EF03F058EF03F060EF03F0A3
:1006B000000E416E000E426E000E436E000E446E40
:1006C000438E000E446E6DEF03F0000E416E000E7F
:1006D000426E000E436E000E446E4850800B4E6E0C
:1006E0004D504E18D8B477EF03F079EF03F07AEF5E
:1006F00003F04D8C485048244E6E47AE82EF03F015
:1007000084EF03F085EF03F04E804E50D8B48BEFAA
:1007100003F08DEF03F0A2EF03F04E28D8A493EF7F
:1007200003F095EF03F09DEF03F0000E456E000E11
:10073000466E000E476E000E486E478E000E486EE5
:10074000AAEF03F0000E456E000E466E000E476ED7
:10075000000E486E4F504E5CD8B0B1EF03F0B3EFCF
:1007600003F0DAEF03F04DACB8EF03F0BAEF03F0AB
:10077000BCEF03F0800E4D1A4FC050F04EC04FF04A
:1007800050C04EF041C050F045C041F050C045F05F
:1007900042C050F046C042F050C046F043C050F056
:1007A00047C043F050C047F044C050F048C044F048
:1007B00050C048F0000E506E4F504EC049F04A6A8B
:1007C000495E000E4A5A4ABEEFEF03F04A5009E173
:1007D0001A0E495CD8A0EFEF03F0F1EF03F028EF19
:1007E00004F04150421043104410D8A4FAEF03F033
:1007F000FDEF03F0010EFEEF03F0000E506E000E51
:10080000416E000E426E000E436E000E446E4EC0EE
:100810004FF031EF04F050A010EF04F012EF04F0AD
:1008200018EF04F0D89050300109506E1AEF04F020
:10083000D890503241A01FEF04F021EF04F022EFD6
:1008400004F0508E443444324332423241324F2A13
:100850004E504F5CD8A02FEF04F031EF04F00BEFB7
:1008600004F04DBC36EF04F038EF04F078EF04F0FC
:100870004F50D8A43EEF04F040EF04F04AEF04F0EC
:10088000000E416E000E426E000E436E000E446E6E
:1008900099EF05F0455041264650422247504322E9
:1008A0004850442244A057EF04F059EF04F005EFFC
:1008B00005F050A05EEF04F060EF04F066EF04F086
:1008C000D89050300109506E68EF04F0D890503243
:1008D00041A06DEF04F06FEF04F070EF04F0508E64
:1008E000443444324332423241324F2A05EF05F05C
:1008F0004550415C46504258475043584450800A46
:10090000496E4850800A4958D8B089EF04F08BEFFF
:1009100004F0B6EF04F04150455C496E4250465831
:100920004A6E435047584B6E445048584C6EFF0E29
:100930004924416EFF0E4A20426EFF0E4B20436E4B
:10094000FF0E4C20446E800E4D1A506C5050D8A4AF
:10095000ACEF04F0AEEF04F0BEEF04F0010E412660
:10096000000E422243224422BEEF04F04550415E75
:100970004650425A4750435A4850445A41504210F8
:1009800043104410D8A4C7EF04F0C9EF04F0FEEF01
:1009900004F05050D8A4CFEF04F0D1EF04F0FEEFF4
:1009A00004F0000E416E000E426E000E436E000E0B
:1009B000446E99EF05F0D8904136423643364436BE
:1009C00050AEE5EF04F0E7EF04F0E8EF04F041800B
:1009D00050A0EDEF04F0EFEF04F0F3EF04F0D88057
:1009E0005036F5EF04F0D89050364F50D8B4FBEFA6
:1009F00004F0FDEF04F0FEEF04F04F0643AE03EF0A
:100A000005F005EF05F0DBEF04F0000E4E6E50AE82
:100A10000CEF05F00EEF05F026EF05F050C049F0A1
:100A20007F0E4916D8B417EF05F019EF05F01DEF4A
:100A300005F0010E4E6E26EF05F041A022EF05F005
:100A400024EF05F026EF05F019EF05F04E50D8B46D
:100A50002CEF05F02EEF05F059EF05F0010E4126C1
:100A6000000E42224322442244A039EF05F03BEF1E
:100A700005F059EF05F041C049F042C04AF043C0CB
:100A80004BF044C04CF04C344C324B324A32493279
:100A900049C041F04AC042F04BC043F04CC044F062
:100AA0004F28D8B456EF05F058EF05F059EF05F090
:100AB0004F2A4F28D8B45FEF05F061EF05F069EFDA
:100AC00005F04F50D8A467EF05F069EF05F07BEF14
:100AD00005F0000E416E000E426E000E436E000ED9
:100AE000446E4F50D8A477EF05F079EF05F07BEF17
:100AF00005F0000E4D6E4FA080EF05F082EF05F07F
:100B000085EF05F0438E86EF05F0439ED8904F3079
:100B1000446E4DAE8EEF05F090EF05F091EF05F0CD
:100B2000448E41C041F042C042F043C043F044C053
:100B300044F01200000E656E000E666EDCEC14F0E0
:100B400078EC14F0F6EC11F08DEC15F0010E7EEC63
:100B500015F0800E7EEC15F0470E0F6E060E106E2F
:100B6000D6EC13F0C00E7EEC15F0620E0F6E060E82
:100B7000106ED6EC13F0350E026E060E036E01EC0D
:100B800014F0620E026E060E036E01EC14F060ECBF
:100B900015F0676E67C00FF0106A3DEC13F0000EA1
:100BA000046E0A0E036E67C001F0026A94EC11F045
:100BB00001C009F002C00AF0000E0C6E0A0E0B6EA6
:100BC000A9EC12F00950300FB2EC15F067C009F033
:100BD0000A6A000E0C6E0A0E0B6EA9EC12F0095098
:100BE000300FB2EC15F00A0EB2EC15F0070E026EE3
:100BF000D00E016E77EC13F0010E7EEC15F0800E36
:100C00007EEC15F0470E0F6E060E106ED6EC13F04C
:100C1000C00E7EEC15F05C0E0F6E060E106ED6EC5C
:100C200013F05C0E026E060E036E01EC14F060EC25
:100C300015F06A6E6AC00FF0106A3DEC13F0000EFA
:100C4000046E0A0E036E6AC001F0026A94EC11F0A1
:100C500001C009F002C00AF0000E0C6E0A0E0B6E05
:100C6000A9EC12F00950300FB2EC15F06AC009F08F
:100C70000A6A000E0C6E0A0E0B6EA9EC12F00950F7
:100C8000300FB2EC15F00A0EB2EC15F0070E026E42
:100C9000D00E016E77EC13F0010E7EEC15F0800E95
:100CA0007EEC15F02B0E0F6E060E106ED6EC13F0C8
:100CB000C00E7EEC15F0620E0F6E060E106ED6ECB6
:100CC00013F00B0E026E060E036E01EC14F0620EB2
:100CD000026E060E036E01EC14F060EC15F0686E07
:100CE00068C00FF0106A3DEC13F0000E046E0A0E9F
:100CF000036E68C001F0026A94EC11F001C009F0C3
:100D000002C00AF0000E0C6E0A0E0B6EA9EC12F077
:100D10000950300FB2EC15F068C009F00A6A000EF5
:100D20000C6E0A0E0B6EA9EC12F00950300FB2ECEB
:100D300015F00A0EB2EC15F0070E026ED00E016E21
:100D400077EC13F0010E7EEC15F0800E7EEC15F0C2
:100D50002B0E0F6E060E106ED6EC13F0C00E7EEC4E
:100D600015F05C0E0F6E060E106ED6EC13F05C0ED6
:100D7000026E060E036E01EC14F060EC15F06B6E63
:100D80006BC00FF0106A3DEC13F0000E046E0A0EFB
:100D9000036E6BC001F0026A94EC11F001C009F01F
:100DA00002C00AF0000E0C6E0A0E0B6EA9EC12F0D7
:100DB0000950300FB2EC15F06BC009F00A6A000E52
:100DC0000C6E0A0E0B6EA9EC12F00950300FB2EC4B
:100DD00015F00A0EB2EC15F0070E026ED00E016E81
:100DE00077EC13F0010E7EEC15F0800E7EEC15F022
:100DF0006E0E0F6E060E106ED6EC13F0C00E7EEC6B
:100E000015F0620E0F6E060E106ED6EC13F0560E35
:100E1000026E060E036E01EC14F0620E026E060EF8
:100E2000036E01EC14F060EC15F0696E69C00FF010
:100E3000106A3DEC13F0000E046E0A0E036E69C0DA
:100E400001F0026A94EC11F001C009F002C00AF04E
:100E5000000E0C6E0A0E0B6EA9EC12F00950300F4A
:100E6000B2EC15F069C009F00A6A000E0C6E0A0EA9
:100E70000B6EA9EC12F00950300FB2EC15F00A0E0F
:100E8000B2EC15F0070E026ED00E016E77EC13F087
:100E9000010E7EEC15F0800E7EEC15F06E0E0F6EDE
:100EA000060E106ED6EC13F0C00E7EEC15F05C0E44
:100EB0000F6E060E106ED6EC13F05C0E026E060E70
:100EC000036E01EC14F060EC15F06C6E6CC00FF06A
:100ED000106A3DEC13F0000E046E0A0E036E6CC037
:100EE00001F0026A94EC11F001C009F002C00AF0AE
:100EF000000E0C6E0A0E0B6EA9EC12F00950300FAA
:100F0000B2EC15F06CC009F00A6A000E0C6E0A0E05
:100F10000B6EA9EC12F00950300FB2EC15F00A0E6E
:100F2000B2EC15F0070E026ED00E016E77EC13F0E6
:100F3000010E7EEC15F0800E7EEC15F0210E0F6E8A
:100F4000060E106ED6EC13F0C6EF07F076EC10F03C
:100F5000010E656EC6EF07F050EC12F0666E020EE1
:100F6000656EC6EF07F06A0E6624D96EDA6A000E67
:100F7000DA22DF505B6E670E6624D96EDA6A000EE5
:100F8000DA22DF50EBEC0EF0000E656E6550636EFA
:100F9000646A6450000AD8B4D0EF07F0C4EF07F0D9
:100FA0006350000AD8B4A6EF07F0010AD8B4ACEF3A
:100FB00007F0030AD8B4B3EF07F0C4EF07F000EF6F
:100FC00000F02B50800B346E2B502B243A6E2AAE3F
:100FD000ECEF07F0EEEF07F0EFEF07F03A803A5052
:100FE000D8B4F5EF07F0F7EF07F00AEF08F03A286A
:100FF000D8A4FDEF07F0FFEF07F007EF08F0000EB1
:10100000286E000E296E000E2A6E000E2B6E2A8EA0
:1010100012EF08F0000E286E000E296E000E2A6EE8
:10102000000E2B6E2F50800B341A2F502F24396E48
:101030002EAE1DEF08F01FEF08F020EF08F039800A
:101040003950D8B426EF08F028EF08F03BEF08F04D
:101050003928D8A42EEF08F030EF08F038EF08F068
:10106000000E2C6E000E2D6E000E2E6E000E2F6EDA
:101070002E8E43EF08F0000E2C6E000E2D6E000E2B
:101080002E6E000E2F6E3950D8B449EF08F04BEF9A
:1010900008F053EF08F03A50D8A451EF08F053EF9E
:1010A00008F05DEF08F0000E286E000E296E000EAD
:1010B0002A6E000E2B6EF5EF09F02E502802F3CFAA
:1010C0003FF0F4CF40F03F50356E366A376A386AE9
:1010D00040503B6E3C6A3D6A3E6A2D502902F3CF78
:1010E0003FF0F4CF40F03F503526000E3622372235
:1010F000382240503B26000E3C223D223E222C50FE
:101100002A02F3CF3FF0F4CF40F03F503526000ED7
:1011100036223722382240503B26000E3C223D2208
:101120003E2237C038F036C037F035C036F0356A69
:101130002C502902F3CF3FF0F4CF40F03F5035263A
:1011400040503622000E3722000E38222D50280241
:10115000F3CF3FF0F4CF40F03F50352640503622D9
:10116000000E3722000E382237C038F036C037F074
:1011700035C036F0356A2C502802F3CF3FF0F4CF5B
:1011800040F03F50352640503622000E3722000EE8
:1011900038222E502902F3CF3FF0F4CF40F03F50D9
:1011A0003B2640503C22000E3D22000E3E222D5098
:1011B0002A02F3CF3FF0F4CF40F03F503B2640509F
:1011C0003C22000E3D22000E3E222E502A02F3CF7A
:1011D0003FF0F4CF40F03F50306E4050316E326AF5
:1011E000336A32C033F031C032F030C031F0306A8F
:1011F00030503B2631503C2232503D2233503E226B
:1012000035C030F036C031F037C032F038C033F07E
:10121000190E10EF09F0D8903332323231323032B9
:10122000E82E0BEF09F030503B2631503C22325073
:101230003D2233503E2237C038F036C037F035C03B
:1012400036F0356A39503AC030F0316A3026000E37
:101250003122820E30243F6EFF0E3120406E46EF69
:1012600009F0D8903B363C363D363E3638AE3BEF43
:1012700009F03DEF09F03EEF09F03B80D89035369C
:101280003636373638363F06D8A040063DAE4BEFEF
:1012900009F04DEF09F031EF09F0000E396E38AE6C
:1012A00054EF09F056EF09F07AEF09F0FF0E35140C
:1012B000306EFF0E3614316EFF0E3714326E7F0E15
:1012C0003814336E3050311032103310D8B46BEF05
:1012D00009F06DEF09F071EF09F0010E396E7AEF48
:1012E00009F03BA076EF09F078EF09F07AEF09F00A
:1012F0006DEF09F03950D8B480EF09F082EF09F0B2
:10130000A6EF09F0010E3B26000E3C223D223E22B4
:101310003EA08DEF09F08FEF09F0A6EF09F03BC07A
:1013200030F03CC031F03DC032F03EC033F03334D9
:10133000333232323132303230C03BF031C03CF0E7
:1013400032C03DF033C03EF03F4A402A40BEB1EFCC
:1013500009F0405008E13F28D8A0B1EF09F0B3EF01
:1013600009F0BDEF09F0000E3B6E000E3C6E800EE2
:101370003D6E7F0E3E6EEBEF09F040BECAEF09F006
:10138000405006E13F04D8B0C8EF09F0CAEF09F0B9
:10139000D6EF09F0000E3B6E000E3C6E000E3D6E67
:1013A000000E3E6E000E346EEBEF09F03FC03AF0D7
:1013B000FF0E3B16FF0E3C167F0E3D16000E3E162E
:1013C0003AA0E5EF09F0E7EF09F0E8EF09F03D8E0C
:1013D000D8903A303E6E34503E123BC028F03CC0AC
:1013E00029F03DC02AF03EC02BF012001250800BB5
:1013F0001F6E12501224266E11AE01EF0AF003EF99
:101400000AF004EF0AF026802650D8B40AEF0AF05A
:101410000CEF0AF021EF0AF02628D8A412EF0AF008
:1014200014EF0AF01CEF0AF0000E0F6E000E106EA3
:10143000000E116E000E126E118E000E126E29EF4C
:101440000AF0000E0F6E000E106E000E116E000EF0
:10145000126E1650800B1F1A16501624276E15AEEA
:1014600034EF0AF036EF0AF037EF0AF02780275002
:10147000D8B43DEF0AF03FEF0AF054EF0AF0272806
:10148000D8A445EF0AF047EF0AF04FEF0AF0000E3C
:10149000136E000E146E000E156E000E166E158E75
:1014A000000E166E5CEF0AF0000E136E000E146E46
:1014B000000E156E000E166E135014101510161037
:1014C000D8A465EF0AF067EF0AF07FEF0AF0000E8C
:1014D0000F6E000E106E000E116E000E126E800E5A
:1014E00011127F0E12121F5012120FC00FF010C0F7
:1014F00010F011C011F012C012F0C2EF0BF0265024
:10150000D8A485EF0AF087EF0AF091EF0AF0000EF9
:101510000F6E000E106E000E116E000E126EC2EFF6
:101520000BF0275026C017F0186A175E000E185AE5
:101530007F0E1724206E000E1820216E0FC01BF0A6
:1015400010C01CF011C01DF012C01EF0000E0F6E76
:10155000000E106E000E116E000E126E000E226E46
:10156000000E236E000E246E000E256E000E276EF8
:10157000F2EF0AF02750D8B4C0EF0AF0C2EF0AF039
:10158000D9EF0AF0D8901B361C361D361E36D8907F
:101590000F3610361136123625AED1EF0AF0D3EFE2
:1015A0000AF0D4EF0AF00F80D89022362336243682
:1015B000253613501B5C14501C5815501D581650DE
:1015C0001E58D8A0E6EF0AF0E8EF0AF0F1EF0AF0B3
:1015D000258C13501B5E14501C5A15501D5A165062
:1015E0001E5A272A190E2764F8EF0AF0FAEF0AF0BC
:1015F000BAEF0AF01B501C101D101E10D8B403EFD8
:101600000BF005EF0BF01DEF0BF022801DEF0BF040
:10161000D8900F3610361136123625AE12EF0BF079
:1016200014EF0BF015EF0BF00F80D8902236233615
:10163000243625362006D8A0210611AE22EF0BF065
:1016400024EF0BF008EF0BF0000E276E25AE2BEF0A
:101650000BF02DEF0BF051EF0BF0FF0E2214176E75
:10166000FF0E2314186EFF0E2414196E7F0E25141E
:101670001A6E1750181019101A10D8B442EF0BF048
:1016800044EF0BF048EF0BF0010E276E51EF0BF01B
:101690000FA04DEF0BF04FEF0BF051EF0BF044EFBD
:1016A0000BF02750D8B457EF0BF059EF0BF07DEF4C
:1016B0000BF0010E0F26000E10221122122212A092
:1016C00064EF0BF066EF0BF07DEF0BF00FC017F03F
:1016D00010C018F011C019F012C01AF01A341A32E2
:1016E00019321832173217C00FF018C010F019C095
:1016F00011F01AC012F0204A212A21BE88EF0BF007
:10170000215008E12028D8A088EF0BF08AEF0BF0D9
:1017100095EF0BF0000E216E2068000E0F6E000E8C
:10172000106E000E116E000E126E21BEA2EF0BF0B5
:10173000215006E12004D8B0A0EF0BF0A2EF0BF08F
:10174000B0EF0BF0000E216E000E206E000E0F6E3B
:10175000000E106E000E116E000E126E000E1F6E47
:1017600020C026F026A0B7EF0BF0B9EF0BF0BCEFCE
:101770000BF0118EBDEF0BF0119ED8902630126E3B
:1017800073EF0AF0120002BED1EF0BF0025007E136
:10179000080E015CD8B0CFEF0BF0D1EF0BF0FBEFF0
:1017A0000BF003500410D8B4D8EF0BF0DAEF0BF0C5
:1017B000EAEF0BF001C005F0010E066E052AE3EF1B
:1017C0000BF0D8900636052EE1EF0BF00650801294
:1017D000E9EF0CF001C005F0010E066E052AF3EFEB
:1017E0000BF0D8900636052EF1EF0BF00650FF0AED
:1017F0008016E9EF0CF002BE09EF0CF0025007E191
:10180000100E015CD8B007EF0CF009EF0CF037EFC9
:101810000CF0F80E0126FF0E022203500410D8B47B
:1018200014EF0CF016EF0CF026EF0CF001C005F0F1
:10183000010E066E052A1FEF0CF0D8900636052E15
:101840001DEF0CF006508112E9EF0CF001C005F01D
:10185000010E066E052A2FEF0CF0D8900636052EE5
:101860002DEF0CF00650FF0A8116E9EF0CF002BED6
:1018700045EF0CF0025007E1180E015CD8B043EFC1
:101880000CF045EF0CF073EF0CF0F00E0126FF0E9C
:10189000022203500410D8B450EF0CF052EF0CF0B9
:1018A00062EF0CF001C005F0010E066E052A5BEF39
:1018B0000CF0D8900636052E59EF0CF00650821227
:1018C000E9EF0CF001C005F0010E066E052A6BEF82
:1018D0000CF0D8900636052E69EF0CF00650FF0A82
:1018E0008216E9EF0CF002BE81EF0CF0025007E126
:1018F000200E015CD8B07FEF0CF081EF0CF0AFEF61
:101900000CF0E80E0126FF0E022203500410D8B49A
:101910008CEF0CF08EEF0CF09EEF0CF001C005F098
:10192000010E066E052A97EF0CF0D8900636052EAC
:1019300095EF0CF006508312E9EF0CF001C005F0B2
:10194000010E066E052AA7EF0CF0D8900636052E7C
:10195000A5EF0CF00650FF0A8316E9EF0CF002BE6B
:10196000BDEF0CF0025007E1280E015CD8B0BBEFD0
:101970000CF0BDEF0CF0E9EF0CF0E00E0126FF0ECD
:10198000022203500410D8B4C8EF0CF0CAEF0CF0D8
:10199000DAEF0CF001C005F0010E066E052AD3EF58
:1019A0000CF0D8900636052ED1EF0CF006508412BC
:1019B000E9EF0CF001C005F0010E066E052AE3EF19
:1019C0000CF0D8900636052EE1EF0CF00650FF0A19
:1019D0008416120002BEF8EF0CF0025007E1080E68
:1019E000015CD8B0F6EF0CF0F8EF0CF022EF0DF040
:1019F00003500410D8B4FFEF0CF001EF0DF011EF1D
:101A00000DF001C005F0010E066E052A0AEF0DF07B
:101A1000D8900636052E08EF0DF00650921210EF02
:101A20000EF001C005F0010E066E052A1AEF0DF04A
:101A3000D8900636052E18EF0DF00650FF0A9216C4
:101A400010EF0EF002BE30EF0DF0025007E1100E65
:101A5000015CD8B02EEF0DF030EF0DF05EEF0DF021
:101A600003500410D8B437EF0DF039EF0DF04BEF01
:101A70000DF001C005F0F80E0526010E066E052AD0
:101A800044EF0DF0D8900636052E42EF0DF00650CB
:101A9000931210EF0EF001C005F0F80E0526010EAE
:101AA000066E052A56EF0DF0D8900636052E54EF37
:101AB0000DF00650FF0A931610EF0EF002BE6CEF09
:101AC0000DF0025007E1180E015CD8B06AEF0DF07E
:101AD0006CEF0DF09AEF0DF003500410D8B473EFD3
:101AE0000DF075EF0DF087EF0DF001C005F0F00E71
:101AF0000526010E066E052A80EF0DF0D8900636F9
:101B0000052E7EEF0DF00650941210EF0EF001C07E
:101B100005F0F00E0526010E066E052A92EF0DF077
:101B2000D8900636052E90EF0DF00650FF0A941659
:101B300010EF0EF002BEA8EF0DF0025007E1200EEC
:101B4000015CD8B0A6EF0DF0A8EF0DF0D6EF0DF0C8
:101B500003500410D8B4AFEF0DF0B1EF0DF0C3EFA8
:101B60000DF001C005F0E80E0526010E066E052AEF
:101B7000BCEF0DF0D8900636052EBAEF0DF00650EA
:101B8000951210EF0EF001C005F0E80E0526010ECB
:101B9000066E052ACEEF0DF0D8900636052ECCEF56
:101BA0000DF00650FF0A951610EF0EF002BEE4EF9E
:101BB0000DF0025007E1280E015CD8B0E2EF0DF005
:101BC000E4EF0DF010EF0EF003500410D8B4EBEF7B
:101BD0000DF0EDEF0DF0FFEF0DF001C005F0E00EA0
:101BE0000526010E066E052AF8EF0DF0D890063690
:101BF000052EF6EF0DF00650961210EF0EF001C014
:101C000005F0E00E0526010E066E052A0AEF0EF01D
:101C1000D8900636052E08EF0EF00650FF0A9616ED
:101C20001200096E0950D8B418EF0EF01AEF0EF03A
:101C30003CEF0EF004BE21EF0EF01FEF0EF03CEF74
:101C40000EF001C005F002C006F003C007F004C0AA
:101C500008F0051E061E071E081E052A000E062295
:101C60000722082205C00BF006C00CF007C00DF0DB
:101C700008C00EF044EF0EF001C00BF002C00CF0F3
:101C800003C00DF004C00EF0015002100310041048
:101C9000D8A44DEF0EF04FEF0EF059EF0EF0000EFE
:101CA000016E000E026E000E036E000E046EEAEF6F
:101CB0000EF0960E0A6E63EF0EF00A2AD8900E32DE
:101CC0000D320C320B32000E0B14056E000E0C148C
:101CD000066E000E0D14076EFE0E0E14086E0550F3
:101CE000061007100810D8A478EF0EF07AEF0EF067
:101CF0005DEF0EF088EF0EF00A2A010E0B26000EA3
:101D00000C220D220E22D8900E320D320C320B32E4
:101D1000000E0B14056E000E0C14066E000E0D1452
:101D2000076EFF0E0E14086E0550061007100810FF
:101D3000D8A49DEF0EF09FEF0EF07CEF0EF0A7EF12
:101D40000EF00A06D8900B360C360D360E360DBE48
:101D5000ACEF0EF0AEEF0EF0B6EF0EF0020E0A6032
:101D6000B4EF0EF0B6EF0EF0A1EF0EF00AB0BBEF3D
:101D70000EF0BDEF0EF0BEEF0EF00D9ED8900A32C1
:101D80000AC005F0066A076A086A05C008F0076A13
:101D9000066A056A05500B1206500C1207500D1208
:101DA00008500E120950D8B4D8EF0EF0DAEF0EF04A
:101DB000E2EF0EF004BEE1EF0EF0DFEF0EF0E2EF27
:101DC0000EF00E8E0BC001F00CC002F00DC003F03F
:101DD0000EC004F01200606E000E026E000E016E66
:101DE00029EC14F001C05EF002C05FF05B50016EA0
:101DF000026A036A046A010E11EC0EF001C045F09C
:101E000002C046F003C047F004C048F0000E136E55
:101E1000C00E146E7F0E156E440E166E5EC001F07D
:101E20005FC002F0000E02BEFF0E036E046E010ED4
:101E300011EC0EF001C00FF002C010F003C011F061
:101E400004C012F0F6EC09F00FC02CF010C02DF019
:101E500011C02EF012C02FF05B5060C05CF05D6AC4
:101E60005C5E000E5D5A5CC001F05DC002F0000EC9
:101E700002BEFF0E036E046E010E11EC0EF001C0E7
:101E800028F002C029F003C02AF004C02BF0E1ECD6
:101E900007F028C041F029C042F02AC043F02BC00F
:101EA00044F03AEC03F041C051F042C052F043C05C
:101EB00053F044C054F011EC11F051C061F052C025
:101EC00062F0C00E7EEC15F0030E046EE80E036E99
:101ED00061C001F062C002F094EC11F001C009F0A1
:101EE00002C00AF0000E0C6E0A0E0B6EA9EC12F086
:101EF0000950300F6FEC15F0000E046E640E036E87
:101F000061C001F062C002F094EC11F001C009F070
:101F100002C00AF0000E0C6E0A0E0B6EA9EC12F055
:101F20000950300F6FEC15F0000E046E0A0E036EB0
:101F300061C001F062C002F094EC11F001C009F040
:101F400002C00AF0000E0C6E0A0E0B6EA9EC12F025
:101F50000950300F6FEC15F061C009F062C00AF053
:101F6000000E0C6E0A0E0B6EA9EC12F00950300F29
:101F70006FEC15F04F0E0F6E060E106ED6EC13F0D0
:101F8000120002BECFEF0FF0025007E1080E015C15
:101F9000D8B0CDEF0FF0CFEF0FF0E3EF0FF001C0AF
:101FA00003F0010E046E032AD8EF0FF0D890043628
:101FB000032ED6EF0FF004508014056E0550016E0D
:101FC000026A75EF10F002BEF1EF0FF0025007E168
:101FD000100E015CD8B0EFEF0FF0F1EF0FF007EF4C
:101FE00010F001C003F0F80E0326010E046E032A60
:101FF000FCEF0FF0D8900436032EFAEF0FF00450E8
:102000008114056E0550016E026A75EF10F002BE74
:1020100015EF10F0025007E1180E015CD8B013EF75
:1020200010F015EF10F02BEF10F001C003F0F00EE0
:102030000326010E046E032A20EF10F0D890043618
:10204000032E1EEF10F004508214056E0550016E31
:10205000026A75EF10F002BE39EF10F0025007E18E
:10206000200E015CD8B037EF10F039EF10F04FEFD1
:1020700010F001C003F0E80E0326010E046E032ADF
:1020800044EF10F0D8900436032E42EF10F00450C5
:102090008314056E0550016E026A75EF10F002BEE2
:1020A0005DEF10F0025007E1280E015CD8B05BEF45
:1020B00010F05DEF10F073EF10F001C003F0E00ED0
:1020C0000326010E046E032A68EF10F0D890043640
:1020D000032E66EF10F004508414056E0550016E57
:1020E000026A75EF10F0016802681200000E706E4F
:1020F000000E6F6E000E0E6E000E0D6E0EBE8AEF9D
:1021000010F00E5009E1050E0D5CD8A08AEF10F01A
:102110008CEF10F08EEF10F0EFEF10F00DC00AF022
:10212000030E0A26010E0B6E000E0C6E0A2A9CEF9F
:1021300010F0D8900B360C360A2E99EF10F00BC029
:1021400007F00CC008F051EC14F0000E026E0A0EFD
:10215000016EC1EC0FF001500210D8B4B2EF10F0D4
:10216000B4EF10F0C7EF10F00DC00AF0010E0B6EC7
:10217000000E0C6E0A2AC0EF10F0D8900B360C3609
:102180000A2EBDEF10F00B506F120C507012000EA3
:10219000026E090E016EC1EC0FF001500210D8B4AE
:1021A000D4EF10F0D6EF10F0EBEF10F00DC00AF006
:1021B000050E0A26010E0B6E000E0C6E0A2AE4EFC5
:1021C00010F0D8900B360C360A2EE1EF10F00B50C1
:1021D0006F120C5070120D4A0E2A7EEF10F06F50E5
:1021E0006D1807E170506E18D8A4F9EF10F0FBEFEE
:1021F00010F0FEEF10F0750604EF11F0010E756E91
:102200006FC06DF070C06EF07550D8A40AEF11F079
:102210000CEF11F010EF11F06DC071F06EC072F0A4
:102220001200533454345A6E5A50D8A41AEF11F095
:102230001CEF11F026EF11F0000E516E000E526EE1
:10224000000E536E000E546E93EF11F051C055F016
:1022500052C056F053C057F054C058F0200E36EF1D
:1022600011F0D8905832573256325532E82E31EFAD
:1022700011F05550596E538EFF0E5116FF0E521627
:10228000FF0E5316000E5416960E5A5E5ABE4DEFB0
:1022900011F04BEF11F063EF11F05A50800A970FD5
:1022A000D8B055EF11F057EF11F059EF11F01CEFC6
:1022B00011F0D89054325332523251325A3E59EFC3
:1022C00011F07BEF11F01F0E5A6469EF11F06BEF04
:1022D00011F073EF11F01CEF11F0D8905136523617
:1022E000533654365A065A50D8A479EF11F07BEF82
:1022F00011F06DEF11F05950D8B481EF11F083EF68
:1023000011F08BEF11F0541E531E521E516C000E33
:1023100052225322542251C051F052C052F053C0A5
:1023200053F054C054F01200000E066E04BE9DEF30
:1023300011F09BEF11F0A3EF11F0036C041ED8B065
:10234000042A010E066E02BEAAEF11F0A8EF11F0EA
:10235000B0EF11F0016C021ED8B0022A010E061A6D
:10236000000E086E000E076E03500410D8B4BBEFC9
:1023700011F0BDEF11F0E5EF11F0010E056EC5EFA4
:1023800011F0D89003360436052A04AECAEF11F0D6
:10239000CCEF11F0C1EF11F0D8900736083603509A
:1023A000015C04500258D8A0D8EF11F0DAEF11F018
:1023B000DFEF11F00350015E0450025A0780D890FD
:1023C00004320332052ECCEF11F00650D8B4EBEFF7
:1023D00011F0EDEF11F0F1EF11F0076C081ED8B01D
:1023E000082A07C001F008C002F01200000E026EB9
:1023F0001C0E016E000E046E000E036EEAEC0CF073
:10240000000E026E1D0E016E000E046E000E036EB5
:10241000EAEC0CF0BDEC14F0000E026E0F0E016E33
:10242000F5EC14F0000E0B6E000E0A6E030E4DEC70
:1024300015F0000E026E050E016EF5EC14F0000EA4
:102440000B6E000E0A6E030E4DEC15F0000E026EC0
:10245000A00E016EC2EC15F0000E0B6E000E0A6E9F
:10246000030E4DEC15F0000E026EA00E016EC2ECD4
:1024700015F0000E0B6E000E0A6E020E4DEC15F0FC
:10248000000E026E0A0E016EF5EC14F0280E7EECC2
:1024900015F00C0E7EEC15F0010E7EEC15F012001E
:1024A000BDEC15F07350011809E174500218D8B44E
:1024B0005CEF12F05EEF12F0A7EF12F0BDEC15F03A
:1024C00001C073F002C074F08DEF12F0010E7EECCB
:1024D00015F03E0E0F6E060E106ED6EC13F0000EC9
:1024E000766EA7EF12F0010E7EEC15F0160E0F6E51
:1024F000060E106ED6EC13F0010E766EA7EF12F0FA
:10250000010E7EEC15F0680E0F6E060E106ED6EC06
:1025100013F0020E766EA7EF12F001EC13F0156EB9
:10252000166A1650000AD8B498EF12F0A7EF12F00E
:102530001550440AD8B480EF12F0080AD8B473EFEB
:1025400012F0190AD8B466EF12F0A7EF12F0765025
:102550001200000E0E6E0ABEB2EF12F0B0EF12F0D3
:10256000B8EF12F0096C0A1ED8B00A2A010E0E6EDE
:102570000CBEBFEF12F0BDEF12F0C3EF12F00B6C08
:102580000C1ED8B00C2A0B500C10D8B4CAEF12F0A5
:10259000CCEF12F0F0EF12F0010E0D6ED4EF12F04E
:1025A000D8900B360C360D2A0CAED9EF12F0DBEFBB
:1025B00012F0D0EF12F00B50095C0C500A58D8A062
:1025C000E4EF12F0E6EF12F0EAEF12F00B50095EC2
:1025D0000C500A5AD8900C320B320D2EDBEF12F051
:1025E0000E50D8B4F6EF12F0F8EF12F0FCEF12F044
:1025F000096C0A1ED8B00A2A09C009F00AC00AF0FC
:102600001200000E056E000E046E04C001F0010EF3
:10261000026E000E036E012A11EF13F0D8900236FD
:102620000336012E0EEF13F071500216725003168E
:1026300002500310D8B41FEF13F021EF13F02BEF6B
:1026400013F0010E0424F66E060E0520F76E080046
:10265000F5503CEF13F0044A052A05BE39EF13F09C
:10266000055009E10A0E045CD8A039EF13F03BEFE6
:1026700013F005EF13F0000E1200270E126E100E6D
:10268000116E69EF13F011C003F012C004F00FC017
:1026900001F010C002F094EC11F001C009F002C08A
:1026A0000AF0000E0C6E0A0E0B6EA9EC12F0095027
:1026B000300F6FEC15F011C001F012C002F0000EE7
:1026C000046E0A0E036E94EC11F001C011F002C00A
:1026D00012F012BE76EF13F0125006E11104D8B0DA
:1026E00074EF13F076EF13F043EF13F01200000EC7
:1026F000046E000E036E9DEF13F0000E056E280EA3
:10270000056485EF13F087EF13F089EF13F09BEF6B
:1027100013F0000E066E020E066491EF13F093EFB5
:1027200013F095EF13F098EF13F0062A8BEF13F0E8
:10273000052A7FEF13F0034A042A0150035C02507C
:102740000458D8A0A6EF13F0A8EF13F07DEF13F014
:1027500012000D6E0DC00CF00C3A0F0E0C160C5042
:10276000076E086A51EC14F0000E026E1D0E016E29
:102770000AC003F00BC004F0C3EC0BF09CEC14F0A7
:102780000DC00CF00F0E0C160C50076E086A51ECC1
:1027900014F0000E026E1D0E016E0AC003F00BC095
:1027A00004F0C3EC0BF09CEC14F01200000E146E5D
:1027B000000E136EECEF13F013500F24116E145033
:1027C0001020126E11C0F6FF12C0F7FF0800F5507E
:1027D0006FEC15F0134A142A13500F24116E145085
:1027E0001020126E11C0F6FF12C0F7FF0800F5505E
:1027F0000009D8A4FEEF13F000EF14F0DCEF13F0A3
:102800001200000E066E14EF14F006500224046E3F
:10281000000E0320056E04C0F6FF05C0F7FF080098
:10282000F550B2EC15F0062A06500224046E000E94
:102830000320056E04C0F6FF05C0F7FF0800F55041
:102840000009D8A426EF14F028EF14F005EF14F0D7
:102850001200C30EC216025007E1030E015CD8B08D
:1028600034EF14F036EF14F03AEF14F00144E84678
:10287000FC0BC212C282C2B240EF14F042EF14F05D
:102880003BEF14F0C4CF03F0046A0350046E036AF4
:10289000C3500326000E042203C001F004C002F05E
:1028A0001200000E026E080E016E000E046E000E85
:1028B000036EC3EC0BF0000E096E000E026E1E0ECE
:1028C000016E800E0714036E046AC3EC0BF038EC43
:1028D00015F0D89007360836092A070E096473EFF9
:1028E00014F075EF14F05DEF14F023EC15F0120006
:1028F000000E026E000E016E000E046E010E036EDD
:10290000EAEC0CF0000E026E010E016E000E046E79
:10291000010E036EEAEC0CF0000E026E020E016E68
:10292000000E046E010E036EEAEC0CF0C2800C0E79
:10293000C16EAA0EC06E1200000E026E1C0E016E59
:10294000000E046E010E036EC3EC0BF0000E026E5F
:10295000050E016EC2EC15F0000E026E1C0E016E2B
:10296000000E046E000E036EC3EC0BF0000E026E40
:10297000050E016EC2EC15F01200000E026E1F0E65
:10298000016E000E046E000E036EEAEC0CF0000EF9
:10299000026E080E016E000E046E000E036EEAEC6D
:1029A0000CF0000E026E1E0E016E000E046E000E84
:1029B000036EEAEC0CF01200BDEC14F0000E026E97
:1029C0000A0E016E000E046E010E036EEAEC0CF0AE
:1029D000000E026E090E016E000E046E010E036EF3
:1029E000EAEC0CF00C0EC16E1200000E056E000E2B
:1029F000046EFDEF14F0044A052A0150045C0550F2
:102A0000800A036E0250800A0358D8A00AEF15F01E
:102A10000CEF15F0FBEF14F01200000E016EABA2EC
:102A200014EF15F016EF15F018EF15F0AB98AB8812
:102A30009EAA1DEF15F01FEF15F021EF15F0AECF98
:102A400001F001501200000E026E1F0E016E000E0A
:102A5000046E010E036EC3EC0BF0000E026E1F0E2F
:102A6000016E000E046E000E036EC3EC0BF012003C
:102A7000000E026E080E016E000E046E010E036E53
:102A8000C3EC0BF0000E026E080E016E000E046E19
:102A9000000E036EC3EC0BF012000C6E0CC007F0BE
:102AA000086A51EC14F0000E026E1D0E016E0AC091
:102AB00003F00BC004F0C3EC0BF09CEC14F012001C
:102AC0009AEC15F0036E9AEC15F0046E9AEC15F082
:102AD000056E03500A0DF3500424F00F12000E6E21
:102AE000000E0B6E010E0A6E0E50A9EC13F0000ED4
:102AF000026E500E016EC2EC15F012000E6E000E4A
:102B00000B6E000E0A6E0E50A9EC13F0000E026E52
:102B1000020E016EF5EC14F012002C0EAC6E900E4D
:102B2000AB6E080EB86E000EB06E220EAF6E948CB7
:102B3000948E12000DEC15F0026E0250D8B4A3EF83
:102B400015F0A5EF15F09AEF15F00250120000EE07
:102B50006DF00A0EEE6AE806FDE1000EF86E000167
:102B60009AEF05F0016E9EA8B8EF15F0BAEF15F0D8
:102B7000B3EF15F001C0ADFF120071C001F072C0DB
:062B800002F01200120039
:020000040020DA
:08000000FFFFFFFFFFFFFFFF00
:020000040030CA
:0E000000FF071F1FFF8385FF0FC00FE00F409B
:00000001FF
